{
  "_format": "hh-sol-artifact-1",
  "contractName": "TestToken",
  "sourceName": "contracts/ERC20.sol",
  "abi": [
    {
      "inputs": [
        {
          "internalType": "string",
          "name": "name_",
          "type": "string"
        },
        {
          "internalType": "string",
          "name": "symbol_",
          "type": "string"
        },
        {
          "internalType": "uint8",
          "name": "decimals_",
          "type": "uint8"
        },
        {
          "internalType": "uint256",
          "name": "mintAmt_",
          "type": "uint256"
        },
        {
          "internalType": "address",
          "name": "mintTo_",
          "type": "address"
        }
      ],
      "stateMutability": "nonpayable",
      "type": "constructor"
    },
    {
      "inputs": [
        {
          "internalType": "address",
          "name": "account",
          "type": "address"
        }
      ],
      "name": "balanceOf",
      "outputs": [
        {
          "internalType": "uint256",
          "name": "",
          "type": "uint256"
        }
      ],
      "stateMutability": "view",
      "type": "function"
    },
    {
      "inputs": [],
      "name": "decimals",
      "outputs": [
        {
          "internalType": "uint8",
          "name": "",
          "type": "uint8"
        }
      ],
      "stateMutability": "view",
      "type": "function"
    },
    {
      "inputs": [
        {
          "internalType": "address",
          "name": "account",
          "type": "address"
        },
        {
          "internalType": "uint256",
          "name": "amount",
          "type": "uint256"
        }
      ],
      "name": "mint",
      "outputs": [],
      "stateMutability": "nonpayable",
      "type": "function"
    },
    {
      "inputs": [],
      "name": "name",
      "outputs": [
        {
          "internalType": "string",
          "name": "",
          "type": "string"
        }
      ],
      "stateMutability": "view",
      "type": "function"
    },
    {
      "inputs": [],
      "name": "symbol",
      "outputs": [
        {
          "internalType": "string",
          "name": "",
          "type": "string"
        }
      ],
      "stateMutability": "view",
      "type": "function"
    },
    {
      "inputs": [],
      "name": "totalSupply",
      "outputs": [
        {
          "internalType": "uint256",
          "name": "",
          "type": "uint256"
        }
      ],
      "stateMutability": "view",
      "type": "function"
    },
    {
      "inputs": [
        {
          "internalType": "address",
          "name": "recipient",
          "type": "address"
        },
        {
          "internalType": "uint256",
          "name": "amount",
          "type": "uint256"
        }
      ],
      "name": "transfer",
      "outputs": [
        {
          "internalType": "bool",
          "name": "",
          "type": "bool"
        }
      ],
      "stateMutability": "nonpayable",
      "type": "function"
    }
  ],
  "bytecode": "0x60806040523480156200001157600080fd5b50604051620011813803806200118183398181016040528101906200003791906200030a565b84600390805190602001906200004f929190620001a3565b50836004908051906020019062000068929190620001a3565b5082600560006101000a81548160ff021916908360ff160217905550620000968183620000a160201b60201c565b505050505062000689565b600073ffffffffffffffffffffffffffffffffffffffff168273ffffffffffffffffffffffffffffffffffffffff16141562000114576040517f08c379a00000000000000000000000000000000000000000000000000000000081526004016200010b9062000400565b60405180910390fd5b62000128600083836200019e60201b60201c565b80600260008282546200013c91906200049a565b92505081905550806000808473ffffffffffffffffffffffffffffffffffffffff1673ffffffffffffffffffffffffffffffffffffffff16815260200190815260200160002060008282546200019391906200049a565b925050819055505050565b505050565b828054620001b19062000578565b90600052602060002090601f016020900481019282620001d5576000855562000221565b82601f10620001f057805160ff191683800117855562000221565b8280016001018555821562000221579182015b828111156200022057825182559160200191906001019062000203565b5b50905062000230919062000234565b5090565b5b808211156200024f57600081600090555060010162000235565b5090565b60006200026a620002648462000456565b62000422565b9050828152602081018484840111156200028357600080fd5b6200029084828562000542565b509392505050565b600081519050620002a9816200063b565b92915050565b600082601f830112620002c157600080fd5b8151620002d384826020860162000253565b91505092915050565b600081519050620002ed8162000655565b92915050565b60008151905062000304816200066f565b92915050565b600080600080600060a086880312156200032357600080fd5b600086015167ffffffffffffffff8111156200033e57600080fd5b6200034c88828901620002af565b955050602086015167ffffffffffffffff8111156200036a57600080fd5b6200037888828901620002af565b94505060406200038b88828901620002f3565b93505060606200039e88828901620002dc565b9250506080620003b18882890162000298565b9150509295509295909350565b6000620003cd601f8362000489565b91507f45524332303a206d696e7420746f20746865207a65726f2061646472657373006000830152602082019050919050565b600060208201905081810360008301526200041b81620003be565b9050919050565b6000604051905081810181811067ffffffffffffffff821117156200044c576200044b6200060c565b5b8060405250919050565b600067ffffffffffffffff8211156200047457620004736200060c565b5b601f19601f8301169050602081019050919050565b600082825260208201905092915050565b6000620004a7826200052b565b9150620004b4836200052b565b9250827fffffffffffffffffffffffffffffffffffffffffffffffffffffffffffffffff03821115620004ec57620004eb620005ae565b5b828201905092915050565b600062000504826200050b565b9050919050565b600073ffffffffffffffffffffffffffffffffffffffff82169050919050565b6000819050919050565b600060ff82169050919050565b60005b838110156200056257808201518184015260208101905062000545565b8381111562000572576000848401525b50505050565b600060028204905060018216806200059157607f821691505b60208210811415620005a857620005a7620005dd565b5b50919050565b7f4e487b7100000000000000000000000000000000000000000000000000000000600052601160045260246000fd5b7f4e487b7100000000000000000000000000000000000000000000000000000000600052602260045260246000fd5b7f4e487b7100000000000000000000000000000000000000000000000000000000600052604160045260246000fd5b6200064681620004f7565b81146200065257600080fd5b50565b62000660816200052b565b81146200066c57600080fd5b50565b6200067a8162000535565b81146200068657600080fd5b50565b610ae880620006996000396000f3fe608060405234801561001057600080fd5b506004361061007d5760003560e01c806340c10f191161005b57806340c10f19146100dc57806370a08231146100f857806395d89b4114610128578063a9059cbb146101465761007d565b806306fdde031461008257806318160ddd146100a0578063313ce567146100be575b600080fd5b61008a610176565b60405161009791906107fd565b60405180910390f35b6100a8610208565b6040516100b5919061087f565b60405180910390f35b6100c6610212565b6040516100d3919061089a565b60405180910390f35b6100f660048036038101906100f1919061060e565b610229565b005b610112600480360381019061010d91906105e5565b6102a7565b60405161011f919061087f565b60405180910390f35b6101306102ef565b60405161013d91906107fd565b60405180910390f35b610160600480360381019061015b919061060e565b610381565b60405161016d91906107e2565b60405180910390f35b606060038054610185906109e3565b80601f01602080910402602001604051908101604052809291908181526020018280546101b1906109e3565b80156101fe5780601f106101d3576101008083540402835291602001916101fe565b820191906000526020600020905b8154815290600101906020018083116101e157829003601f168201915b5050505050905090565b6000600254905090565b6000600560009054906101000a900460ff16905090565b6102356000838361039f565b806002600082825461024791906108d1565b92505081905550806000808473ffffffffffffffffffffffffffffffffffffffff1673ffffffffffffffffffffffffffffffffffffffff168152602001908152602001600020600082825461029c91906108d1565b925050819055505050565b60008060008373ffffffffffffffffffffffffffffffffffffffff1673ffffffffffffffffffffffffffffffffffffffff168152602001908152602001600020549050919050565b6060600480546102fe906109e3565b80601f016020809104026020016040519081016040528092919081815260200182805461032a906109e3565b80156103775780601f1061034c57610100808354040283529160200191610377565b820191906000526020600020905b81548152906001019060200180831161035a57829003601f168201915b5050505050905090565b600061039561038e6103a4565b84846103ac565b6001905092915050565b505050565b600033905090565b600073ffffffffffffffffffffffffffffffffffffffff168373ffffffffffffffffffffffffffffffffffffffff16141561041c576040517f08c379a00000000000000000000000000000000000000000000000000000000081526004016104139061085f565b60405180910390fd5b600073ffffffffffffffffffffffffffffffffffffffff168273ffffffffffffffffffffffffffffffffffffffff16141561048c576040517f08c379a00000000000000000000000000000000000000000000000000000000081526004016104839061081f565b60405180910390fd5b60008060008573ffffffffffffffffffffffffffffffffffffffff1673ffffffffffffffffffffffffffffffffffffffff16815260200190815260200160002054905081811015610512576040517f08c379a00000000000000000000000000000000000000000000000000000000081526004016105099061083f565b60405180910390fd5b818161051e9190610927565b6000808673ffffffffffffffffffffffffffffffffffffffff1673ffffffffffffffffffffffffffffffffffffffff16815260200190815260200160002081905550816000808573ffffffffffffffffffffffffffffffffffffffff1673ffffffffffffffffffffffffffffffffffffffff16815260200190815260200160002060008282546105ae91906108d1565b9250508190555050505050565b6000813590506105ca81610a84565b92915050565b6000813590506105df81610a9b565b92915050565b6000602082840312156105f757600080fd5b6000610605848285016105bb565b91505092915050565b6000806040838503121561062157600080fd5b600061062f858286016105bb565b9250506020610640858286016105d0565b9150509250929050565b6106538161096d565b82525050565b6000610664826108b5565b61066e81856108c0565b935061067e8185602086016109b0565b61068781610a73565b840191505092915050565b600061069f6023836108c0565b91507f45524332303a207472616e7366657220746f20746865207a65726f206164647260008301527f65737300000000000000000000000000000000000000000000000000000000006020830152604082019050919050565b60006107056026836108c0565b91507f45524332303a207472616e7366657220616d6f756e742065786365656473206260008301527f616c616e636500000000000000000000000000000000000000000000000000006020830152604082019050919050565b600061076b6025836108c0565b91507f45524332303a207472616e736665722066726f6d20746865207a65726f20616460008301527f64726573730000000000000000000000000000000000000000000000000000006020830152604082019050919050565b6107cd81610999565b82525050565b6107dc816109a3565b82525050565b60006020820190506107f7600083018461064a565b92915050565b600060208201905081810360008301526108178184610659565b905092915050565b6000602082019050818103600083015261083881610692565b9050919050565b60006020820190508181036000830152610858816106f8565b9050919050565b600060208201905081810360008301526108788161075e565b9050919050565b600060208201905061089460008301846107c4565b92915050565b60006020820190506108af60008301846107d3565b92915050565b600081519050919050565b600082825260208201905092915050565b60006108dc82610999565b91506108e783610999565b9250827fffffffffffffffffffffffffffffffffffffffffffffffffffffffffffffffff0382111561091c5761091b610a15565b5b828201905092915050565b600061093282610999565b915061093d83610999565b9250828210156109505761094f610a15565b5b828203905092915050565b600061096682610979565b9050919050565b60008115159050919050565b600073ffffffffffffffffffffffffffffffffffffffff82169050919050565b6000819050919050565b600060ff82169050919050565b60005b838110156109ce5780820151818401526020810190506109b3565b838111156109dd576000848401525b50505050565b600060028204905060018216806109fb57607f821691505b60208210811415610a0f57610a0e610a44565b5b50919050565b7f4e487b7100000000000000000000000000000000000000000000000000000000600052601160045260246000fd5b7f4e487b7100000000000000000000000000000000000000000000000000000000600052602260045260246000fd5b6000601f19601f8301169050919050565b610a8d8161095b565b8114610a9857600080fd5b50565b610aa481610999565b8114610aaf57600080fd5b5056fea26469706673582212206b98a2d7c45d3a5e8e88e5c95fca79ca8986ed3ab4b772a8745f19ac0b4698d164736f6c63430008000033",
  "linkReferences": {},
  "deployedLinkReferences": {}
}