{
  "_format": "hh-sol-artifact-1",
  "contractName": "liquidityLock",
  "sourceName": "contracts/pool.sol",
  "abi": [
    {
      "inputs": [],
      "stateMutability": "nonpayable",
      "type": "constructor"
    },
    {
      "anonymous": false,
      "inputs": [
        {
          "indexed": false,
          "internalType": "uint256",
          "name": "totalStableCoin",
          "type": "uint256"
        },
        {
          "indexed": false,
          "internalType": "address",
          "name": "userAddress",
          "type": "address"
        }
      ],
      "name": "LockedToken",
      "type": "event"
    },
    {
      "inputs": [],
      "name": "done",
      "outputs": [
        {
          "internalType": "bool",
          "name": "",
          "type": "bool"
        }
      ],
      "stateMutability": "view",
      "type": "function"
    },
    {
      "inputs": [
        {
          "internalType": "uint256",
          "name": "token0",
          "type": "uint256"
        },
        {
          "internalType": "uint256",
          "name": "token1",
          "type": "uint256"
        },
        {
          "internalType": "address",
          "name": "token0Address",
          "type": "address"
        },
        {
          "internalType": "address",
          "name": "token1Address",
          "type": "address"
        },
        {
          "internalType": "address",
          "name": "myTokenAddress",
          "type": "address"
        }
      ],
      "name": "lockNFTandMint",
      "outputs": [
        {
          "internalType": "address",
          "name": "finder",
          "type": "address"
        }
      ],
      "stateMutability": "nonpayable",
      "type": "function"
    },
    {
      "inputs": [],
      "name": "lockedAt",
      "outputs": [
        {
          "internalType": "address",
          "name": "",
          "type": "address"
        }
      ],
      "stateMutability": "view",
      "type": "function"
    },
    {
      "inputs": [],
      "name": "owner",
      "outputs": [
        {
          "internalType": "address",
          "name": "",
          "type": "address"
        }
      ],
      "stateMutability": "view",
      "type": "function"
    },
    {
      "inputs": [
        {
          "internalType": "address",
          "name": "",
          "type": "address"
        }
      ],
      "name": "tokenAddressToValue",
      "outputs": [
        {
          "internalType": "uint256",
          "name": "",
          "type": "uint256"
        }
      ],
      "stateMutability": "view",
      "type": "function"
    },
    {
      "inputs": [
        {
          "internalType": "address",
          "name": "",
          "type": "address"
        },
        {
          "internalType": "uint256",
          "name": "",
          "type": "uint256"
        }
      ],
      "name": "tokenDetails",
      "outputs": [
        {
          "internalType": "uint256",
          "name": "",
          "type": "uint256"
        }
      ],
      "stateMutability": "view",
      "type": "function"
    },
    {
      "inputs": [
        {
          "internalType": "address",
          "name": "",
          "type": "address"
        }
      ],
      "name": "tokensLocked",
      "outputs": [
        {
          "internalType": "uint256",
          "name": "",
          "type": "uint256"
        }
      ],
      "stateMutability": "view",
      "type": "function"
    }
  ],
  "bytecode": "0x608060405234801561001057600080fd5b5033600460006101000a81548173ffffffffffffffffffffffffffffffffffffffff021916908373ffffffffffffffffffffffffffffffffffffffff160217905550610be3806100616000396000f3fe608060405234801561001057600080fd5b506004361061007d5760003560e01c80639ca739171161005b5780639ca73917146101005780639d731f7214610130578063ae8421e114610160578063b21634821461017e5761007d565b806301a598a6146100825780638da5cb5b146100b25780639831950c146100d0575b600080fd5b61009c6004803603810190610097919061079b565b61019c565b6040516100a9919061098c565b60405180910390f35b6100ba6101b4565b6040516100c7919061090d565b60405180910390f35b6100ea60048036038101906100e591906107c4565b6101da565b6040516100f7919061098c565b60405180910390f35b61011a6004803603810190610115919061079b565b61020b565b604051610127919061098c565b60405180910390f35b61014a60048036038101906101459190610829565b610223565b604051610157919061090d565b60405180910390f35b61016861053a565b6040516101759190610951565b60405180910390f35b61018661054b565b604051610193919061090d565b60405180910390f35b60026020528060005260406000206000915090505481565b600460009054906101000a900473ffffffffffffffffffffffffffffffffffffffff1681565b600360205281600052604060002081815481106101f657600080fd5b90600052602060002001600091509150505481565b60016020528060005260406000206000915090505481565b6000600460009054906101000a900473ffffffffffffffffffffffffffffffffffffffff1673ffffffffffffffffffffffffffffffffffffffff163373ffffffffffffffffffffffffffffffffffffffff16146102b5576040517f08c379a00000000000000000000000000000000000000000000000000000000081526004016102ac9061096c565b60405180910390fd5b600080868811156102fd5760646102cc8989610571565b6102d69190610a68565b506102eb60028361058790919063ffffffff16565b506102f6888861059d565b9050610337565b6064610309888a610571565b6103139190610a68565b915061032960028361058790919063ffffffff16565b50610334878961059d565b90505b610363600560009054906101000a900473ffffffffffffffffffffffffffffffffffffffff16826105ca565b92506103b781600260003373ffffffffffffffffffffffffffffffffffffffff1673ffffffffffffffffffffffffffffffffffffffff1681526020019081526020016000205461068590919063ffffffff16565b600260003373ffffffffffffffffffffffffffffffffffffffff1673ffffffffffffffffffffffffffffffffffffffff16815260200190815260200160002081905550600360003373ffffffffffffffffffffffffffffffffffffffff1673ffffffffffffffffffffffffffffffffffffffff168152602001908152602001600020889080600181540180825580915050600190039060005260206000200160009091909190915055600360003373ffffffffffffffffffffffffffffffffffffffff1673ffffffffffffffffffffffffffffffffffffffff1681526020019081526020016000208790806001815401808255809150506001900390600052602060002001600090919091909150557f02842cd5de09ab80a8b47ccb01bffc1873f3c723dc6e74818cacf8826ff8549282336040516104f79291906109a7565b60405180910390a1610509848361069b565b50600560009054906101000a900473ffffffffffffffffffffffffffffffffffffffff169250505095945050505050565b60008054906101000a900460ff1681565b600560009054906101000a900473ffffffffffffffffffffffffffffffffffffffff1681565b6000818361057f9190610a37565b905092915050565b600081836105959190610a68565b905092915050565b6000806105aa8484610571565b90506105bf848261068590919063ffffffff16565b508091505092915050565b6000600460009054906101000a900473ffffffffffffffffffffffffffffffffffffffff1673ffffffffffffffffffffffffffffffffffffffff1663a9059cbb84846040518363ffffffff1660e01b8152600401610629929190610928565b602060405180830381600087803b15801561064357600080fd5b505af1158015610657573d6000803e3d6000fd5b505050506040513d601f19601f8201168201806040525081019061067b9190610800565b5082905092915050565b6000818361069391906109e1565b905092915050565b60008273ffffffffffffffffffffffffffffffffffffffff166340c10f19600460009054906101000a900473ffffffffffffffffffffffffffffffffffffffff16846040518363ffffffff1660e01b81526004016106fa929190610928565b600060405180830381600087803b15801561071457600080fd5b505af1158015610728573d6000803e3d6000fd5b5050505060016000806101000a81548160ff02191690831515021790555060008054906101000a900460ff16905092915050565b60008135905061076b81610b68565b92915050565b60008151905061078081610b7f565b92915050565b60008135905061079581610b96565b92915050565b6000602082840312156107ad57600080fd5b60006107bb8482850161075c565b91505092915050565b600080604083850312156107d757600080fd5b60006107e58582860161075c565b92505060206107f685828601610786565b9150509250929050565b60006020828403121561081257600080fd5b600061082084828501610771565b91505092915050565b600080600080600060a0868803121561084157600080fd5b600061084f88828901610786565b955050602061086088828901610786565b94505060406108718882890161075c565b93505060606108828882890161075c565b92505060806108938882890161075c565b9150509295509295909350565b6108a981610ac2565b82525050565b6108b881610ad4565b82525050565b60006108cb600e836109d0565b91507f4e6f7420617574686f72697a65640000000000000000000000000000000000006000830152602082019050919050565b61090781610b00565b82525050565b600060208201905061092260008301846108a0565b92915050565b600060408201905061093d60008301856108a0565b61094a60208301846108fe565b9392505050565b600060208201905061096660008301846108af565b92915050565b60006020820190508181036000830152610985816108be565b9050919050565b60006020820190506109a160008301846108fe565b92915050565b60006040820190506109bc60008301856108fe565b6109c960208301846108a0565b9392505050565b600082825260208201905092915050565b60006109ec82610b00565b91506109f783610b00565b9250827fffffffffffffffffffffffffffffffffffffffffffffffffffffffffffffffff03821115610a2c57610a2b610b0a565b5b828201905092915050565b6000610a4282610b00565b9150610a4d83610b00565b925082610a5d57610a5c610b39565b5b828204905092915050565b6000610a7382610b00565b9150610a7e83610b00565b9250817fffffffffffffffffffffffffffffffffffffffffffffffffffffffffffffffff0483118215151615610ab757610ab6610b0a565b5b828202905092915050565b6000610acd82610ae0565b9050919050565b60008115159050919050565b600073ffffffffffffffffffffffffffffffffffffffff82169050919050565b6000819050919050565b7f4e487b7100000000000000000000000000000000000000000000000000000000600052601160045260246000fd5b7f4e487b7100000000000000000000000000000000000000000000000000000000600052601260045260246000fd5b610b7181610ac2565b8114610b7c57600080fd5b50565b610b8881610ad4565b8114610b9357600080fd5b50565b610b9f81610b00565b8114610baa57600080fd5b5056fea2646970667358221220d20275078a6f81b7c0a02cb632fa74c439cd90122334963a8a767d4549c76e0264736f6c63430008000033",
  "linkReferences": {},
  "deployedLinkReferences": {}
}